{
  "address": "0x4e2a8b14e911a6681ba2e0f8C5cB0aAd7Fd68035",
  "abi": [
    {
      "inputs": [],
      "stateMutability": "nonpayable",
      "type": "constructor"
    },
    {
      "inputs": [],
      "name": "doStuff",
      "outputs": [
        {
          "internalType": "uint256",
          "name": "",
          "type": "uint256"
        },
        {
          "internalType": "bool",
          "name": "",
          "type": "bool"
        }
      ],
      "stateMutability": "view",
      "type": "function"
    }
  ],
  "transactionHash": "0x7ee478553c7ce152ed170a5da345abf70b11f21627a8b59044586a1115153c1b",
  "args": [],
  "numDeployments": 1,
  "solcInputHash": "b3dfcdffc34ba1667b356354aa808425",
  "bytecode": "0x60a060405234801561001057600080fd5b50601960008190555060018060006101000a81548160ff021916908315150217905550600260de908060018154018082558091505060019003906000526020600020016000909190919091505560016003600080815260200190815260200160002060006101000a81548160ff021916908315150217905550607b6080818152505060805161017b6100aa6000396000505061017b6000f3fe608060405234801561001057600080fd5b506004361061002b5760003560e01c8063874f33a114610030575b600080fd5b61003861004f565b6040516100469291906100b9565b60405180910390f35b600080600060016000546100639190610111565b90506000600160009054906101000a900460ff16905081819350935050509091565b6000819050919050565b61009881610085565b82525050565b60008115159050919050565b6100b38161009e565b82525050565b60006040820190506100ce600083018561008f565b6100db60208301846100aa565b9392505050565b7f4e487b7100000000000000000000000000000000000000000000000000000000600052601160045260246000fd5b600061011c82610085565b915061012783610085565b925082820190508082111561013f5761013e6100e2565b5b9291505056fea26469706673582212207f825f94f089a52986a391ffec1e7941cdae3db38d1dc56c7183e562b43f500364736f6c63430008110033",
  "devdoc": {
    "kind": "dev",
    "methods": {},
    "version": 1
  },
  "userdoc": {
    "kind": "user",
    "methods": {},
    "version": 1
  },
  "storageLayout": {
    "storage": [
      {
        "astId": 361,
        "contract": "contracts/exampleContracts/FunWithStorage.sol:FunWithStorage",
        "label": "favoriteNumber",
        "offset": 0,
        "slot": "0",
        "type": "t_uint256"
      },
      {
        "astId": 363,
        "contract": "contracts/exampleContracts/FunWithStorage.sol:FunWithStorage",
        "label": "someBool",
        "offset": 0,
        "slot": "1",
        "type": "t_bool"
      },
      {
        "astId": 366,
        "contract": "contracts/exampleContracts/FunWithStorage.sol:FunWithStorage",
        "label": "myArray",
        "offset": 0,
        "slot": "2",
        "type": "t_array(t_uint256)dyn_storage"
      },
      {
        "astId": 370,
        "contract": "contracts/exampleContracts/FunWithStorage.sol:FunWithStorage",
        "label": "myMap",
        "offset": 0,
        "slot": "3",
        "type": "t_mapping(t_uint256,t_bool)"
      }
    ],
    "types": {
      "t_array(t_uint256)dyn_storage": {
        "base": "t_uint256",
        "encoding": "dynamic_array",
        "label": "uint256[]",
        "numberOfBytes": "32"
      },
      "t_bool": {
        "encoding": "inplace",
        "label": "bool",
        "numberOfBytes": "1"
      },
      "t_mapping(t_uint256,t_bool)": {
        "encoding": "mapping",
        "key": "t_uint256",
        "label": "mapping(uint256 => bool)",
        "numberOfBytes": "32",
        "value": "t_bool"
      },
      "t_uint256": {
        "encoding": "inplace",
        "label": "uint256",
        "numberOfBytes": "32"
      }
    }
  }
}